{
  "contractName": "AuditablePlatform",
  "abi": [
    {
      "inputs": [
        {
          "internalType": "address",
          "name": "_archivedNFT",
          "type": "address"
        }
      ],
      "stateMutability": "nonpayable",
      "type": "constructor"
    },
    {
      "anonymous": false,
      "inputs": [
        {
          "indexed": false,
          "internalType": "address",
          "name": "_owner",
          "type": "address"
        },
        {
          "indexed": false,
          "internalType": "address",
          "name": "_auditor",
          "type": "address"
        },
        {
          "indexed": false,
          "internalType": "uint256",
          "name": "_time",
          "type": "uint256"
        }
      ],
      "name": "AddedAuditor",
      "type": "event"
    },
    {
      "anonymous": false,
      "inputs": [
        {
          "indexed": false,
          "internalType": "address",
          "name": "_auditor",
          "type": "address"
        },
        {
          "indexed": false,
          "internalType": "address",
          "name": "_contract",
          "type": "address"
        },
        {
          "indexed": false,
          "internalType": "bool",
          "name": "_auditPassed",
          "type": "bool"
        },
        {
          "indexed": false,
          "internalType": "string",
          "name": "_metaData",
          "type": "string"
        },
        {
          "indexed": false,
          "internalType": "uint256",
          "name": "_time",
          "type": "uint256"
        }
      ],
      "name": "CompletedAudit",
      "type": "event"
    },
    {
      "anonymous": false,
      "inputs": [
        {
          "indexed": false,
          "internalType": "address",
          "name": "_previous",
          "type": "address"
        },
        {
          "indexed": false,
          "internalType": "address",
          "name": "_next",
          "type": "address"
        },
        {
          "indexed": false,
          "internalType": "uint256",
          "name": "_time",
          "type": "uint256"
        }
      ],
      "name": "OwnershipTransferred",
      "type": "event"
    },
    {
      "anonymous": false,
      "inputs": [
        {
          "indexed": false,
          "internalType": "address",
          "name": "_owner",
          "type": "address"
        },
        {
          "indexed": false,
          "internalType": "address",
          "name": "_auditor",
          "type": "address"
        },
        {
          "indexed": false,
          "internalType": "uint256",
          "name": "_time",
          "type": "uint256"
        }
      ],
      "name": "RemovedAuditor",
      "type": "event"
    },
    {
      "inputs": [],
      "name": "archivedNFT",
      "outputs": [
        {
          "internalType": "address",
          "name": "",
          "type": "address"
        }
      ],
      "stateMutability": "view",
      "type": "function"
    },
    {
      "inputs": [],
      "name": "owner",
      "outputs": [
        {
          "internalType": "address payable",
          "name": "",
          "type": "address"
        }
      ],
      "stateMutability": "view",
      "type": "function"
    },
    {
      "inputs": [
        {
          "internalType": "address payable",
          "name": "_owner",
          "type": "address"
        }
      ],
      "name": "transferOwnership",
      "outputs": [],
      "stateMutability": "nonpayable",
      "type": "function"
    },
    {
      "inputs": [
        {
          "internalType": "address",
          "name": "_contract",
          "type": "address"
        },
        {
          "internalType": "bool",
          "name": "_auditPassed",
          "type": "bool"
        },
        {
          "internalType": "bytes",
          "name": "_metaData",
          "type": "bytes"
        }
      ],
      "name": "completeAudit",
      "outputs": [],
      "stateMutability": "nonpayable",
      "type": "function"
    },
    {
      "inputs": [
        {
          "internalType": "address",
          "name": "_auditor",
          "type": "address"
        }
      ],
      "name": "addAuditor",
      "outputs": [],
      "stateMutability": "nonpayable",
      "type": "function"
    },
    {
      "inputs": [
        {
          "internalType": "address",
          "name": "_auditor",
          "type": "address"
        }
      ],
      "name": "removeAuditor",
      "outputs": [],
      "stateMutability": "nonpayable",
      "type": "function"
    }
  ],
  "bytecode": "0x608060405234801561001057600080fd5b50604051610e0d380380610e0d8339818101604052602081101561003357600080fd5b8101908080519060200190929190505050336000806101000a81548173ffffffffffffffffffffffffffffffffffffffff021916908373ffffffffffffffffffffffffffffffffffffffff16021790555080600160006101000a81548173ffffffffffffffffffffffffffffffffffffffff021916908373ffffffffffffffffffffffffffffffffffffffff16021790555050610d38806100d56000396000f3fe608060405234801561001057600080fd5b50600436106100625760003560e01c80633009f368146100675780633cbe1c74146100b15780638da5cb5b14610156578063e429cef1146101a0578063e6116cfd146101e4578063f2fde38b14610228575b600080fd5b61006f61026c565b604051808273ffffffffffffffffffffffffffffffffffffffff1673ffffffffffffffffffffffffffffffffffffffff16815260200191505060405180910390f35b610154600480360360608110156100c757600080fd5b81019080803573ffffffffffffffffffffffffffffffffffffffff1690602001909291908035151590602001909291908035906020019064010000000081111561011057600080fd5b82018360208201111561012257600080fd5b8035906020019184600183028401116401000000008311171561014457600080fd5b9091929391929390505050610292565b005b61015e6105fa565b604051808273ffffffffffffffffffffffffffffffffffffffff1673ffffffffffffffffffffffffffffffffffffffff16815260200191505060405180910390f35b6101e2600480360360208110156101b657600080fd5b81019080803573ffffffffffffffffffffffffffffffffffffffff16906020019092919050505061061f565b005b610226600480360360208110156101fa57600080fd5b81019080803573ffffffffffffffffffffffffffffffffffffffff16906020019092919050505061089b565b005b61026a6004803603602081101561023e57600080fd5b81019080803573ffffffffffffffffffffffffffffffffffffffff169060200190929190505050610b16565b005b600160009054906101000a900473ffffffffffffffffffffffffffffffffffffffff1681565b600260003373ffffffffffffffffffffffffffffffffffffffff1673ffffffffffffffffffffffffffffffffffffffff16815260200190815260200160002060009054906101000a900460ff16610351576040517f08c379a000000000000000000000000000000000000000000000000000000000815260040180806020018281038252600e8152602001807f4e6f7420616e2061756469746f7200000000000000000000000000000000000081525060200191505060405180910390fd5b600160009054906101000a900473ffffffffffffffffffffffffffffffffffffffff1673ffffffffffffffffffffffffffffffffffffffff16338383604051602401808473ffffffffffffffffffffffffffffffffffffffff1673ffffffffffffffffffffffffffffffffffffffff168152602001806020018281038252848482818152602001925080828437600081840152601f19601f8201169050808301925050509450505050506040516020818303038152906040527fb68488f2000000000000000000000000000000000000000000000000000000007bffffffffffffffffffffffffffffffffffffffffffffffffffffffff19166020820180517bffffffffffffffffffffffffffffffffffffffffffffffffffffffff83818316178352505050506040518082805190602001908083835b602083106104ab5780518252602082019150602081019050602083039250610488565b6001836020036101000a0380198251168184511680821785525050505050509050019150506000604051808303816000865af19150503d806000811461050d576040519150601f19603f3d011682016040523d82523d6000602084013e610512565b606091505b5050507fcb729ef0c28376bfb398fe54ac0b25842030d72985e4537e4124caadb1698594338585858542604051808773ffffffffffffffffffffffffffffffffffffffff1673ffffffffffffffffffffffffffffffffffffffff1681526020018673ffffffffffffffffffffffffffffffffffffffff1673ffffffffffffffffffffffffffffffffffffffff16815260200185151515158152602001806020018381526020018281038252858582818152602001925080828437600081840152601f19601f82011690508083019250505097505050505050505060405180910390a150505050565b6000809054906101000a900473ffffffffffffffffffffffffffffffffffffffff1681565b6000809054906101000a900473ffffffffffffffffffffffffffffffffffffffff1673ffffffffffffffffffffffffffffffffffffffff163373ffffffffffffffffffffffffffffffffffffffff16146106e1576040517f08c379a000000000000000000000000000000000000000000000000000000000815260040180806020018281038252600a8152602001807f4f776e6572206f6e6c790000000000000000000000000000000000000000000081525060200191505060405180910390fd5b600260008273ffffffffffffffffffffffffffffffffffffffff1673ffffffffffffffffffffffffffffffffffffffff16815260200190815260200160002060009054906101000a900460ff16156107a1576040517f08c379a00000000000000000000000000000000000000000000000000000000081526004018080602001828103825260128152602001807f416c726561647920616e2061756469746f72000000000000000000000000000081525060200191505060405180910390fd5b6001600260008373ffffffffffffffffffffffffffffffffffffffff1673ffffffffffffffffffffffffffffffffffffffff16815260200190815260200160002060006101000a81548160ff0219169083151502179055507f86b844067f7b3d20a7cde5dbbe1e05b83c947f51887b3750a415a95aa5f70f8f338242604051808473ffffffffffffffffffffffffffffffffffffffff1673ffffffffffffffffffffffffffffffffffffffff1681526020018373ffffffffffffffffffffffffffffffffffffffff1673ffffffffffffffffffffffffffffffffffffffff168152602001828152602001935050505060405180910390a150565b6000809054906101000a900473ffffffffffffffffffffffffffffffffffffffff1673ffffffffffffffffffffffffffffffffffffffff163373ffffffffffffffffffffffffffffffffffffffff161461095d576040517f08c379a000000000000000000000000000000000000000000000000000000000815260040180806020018281038252600a8152602001807f4f776e6572206f6e6c790000000000000000000000000000000000000000000081525060200191505060405180910390fd5b600260008273ffffffffffffffffffffffffffffffffffffffff1673ffffffffffffffffffffffffffffffffffffffff16815260200190815260200160002060009054906101000a900460ff16610a1c576040517f08c379a000000000000000000000000000000000000000000000000000000000815260040180806020018281038252601d8152602001807f416c72656164792072656d6f7665642066726f6d2061756469746f727300000081525060200191505060405180910390fd5b6000600260008373ffffffffffffffffffffffffffffffffffffffff1673ffffffffffffffffffffffffffffffffffffffff16815260200190815260200160002060006101000a81548160ff0219169083151502179055507f3a5d06bf980229b1b9eb4cd6b8ecba7b9757723c5fd3ffaf44eb5ce81846b448338242604051808473ffffffffffffffffffffffffffffffffffffffff1673ffffffffffffffffffffffffffffffffffffffff1681526020018373ffffffffffffffffffffffffffffffffffffffff1673ffffffffffffffffffffffffffffffffffffffff168152602001828152602001935050505060405180910390a150565b6000809054906101000a900473ffffffffffffffffffffffffffffffffffffffff1673ffffffffffffffffffffffffffffffffffffffff163373ffffffffffffffffffffffffffffffffffffffff1614610bd8576040517f08c379a000000000000000000000000000000000000000000000000000000000815260040180806020018281038252600a8152602001807f4f776e6572206f6e6c790000000000000000000000000000000000000000000081525060200191505060405180910390fd5b60008060009054906101000a900473ffffffffffffffffffffffffffffffffffffffff169050816000806101000a81548173ffffffffffffffffffffffffffffffffffffffff021916908373ffffffffffffffffffffffffffffffffffffffff1602179055507fc13a1166d81cd3b0b352a367aebab95f3a6f6bc695fdab8e9a9d335239c3861b816000809054906101000a900473ffffffffffffffffffffffffffffffffffffffff1642604051808473ffffffffffffffffffffffffffffffffffffffff1673ffffffffffffffffffffffffffffffffffffffff1681526020018373ffffffffffffffffffffffffffffffffffffffff1673ffffffffffffffffffffffffffffffffffffffff168152602001828152602001935050505060405180910390a1505056fea264697066735822122075c3ae84b63a60c06381b0abe2378bd780833977af4c4a658c48a748943d5ef964736f6c634300060a0033",
  "immutableReferences": {},
  "source": "pragma solidity ^0.6.10;\r\nimport \"./Ownable.sol\";\r\n\r\ncontract AuditablePlatform is Ownable {\r\n\r\n    address public archivedNFT;\r\n\r\n    mapping(address => bool) isAuditor;\r\n\r\n    event AddedAuditor(address _owner, address _auditor, uint256 _time);\r\n    event RemovedAuditor(address _owner, address _auditor, uint256 _time);\r\n    event CompletedAudit(address _auditor, address _contract, bool _auditPassed, string _metaData, uint256 _time);\r\n\r\n    constructor(address _archivedNFT) Ownable() public {\r\n        archivedNFT = _archivedNFT;\r\n    }\r\n\r\n    function completeAudit(address _contract, bool _auditPassed, bytes calldata _metaData) external {\r\n        require(isAuditor[msg.sender], \"Not an auditor\");\r\n\r\n        archivedNFT.call(abi.encodeWithSignature(\"mint(address, bytes)\", msg.sender, _metaData));\r\n\r\n        emit CompletedAudit(msg.sender, _contract, _auditPassed, string(_metaData), now);\r\n    }\r\n\r\n    function addAuditor(address _auditor) public onlyOwner() {\r\n        require(!isAuditor[_auditor], \"Already an auditor\");\r\n        \r\n        isAuditor[_auditor] = true;\r\n\r\n        emit AddedAuditor(msg.sender, _auditor, now);\r\n    }\r\n\r\n    function removeAuditor(address _auditor) public onlyOwner() {\r\n        require(isAuditor[_auditor], \"Already removed from auditors\");\r\n        \r\n        isAuditor[_auditor] = false;\r\n\r\n        emit RemovedAuditor(msg.sender, _auditor, now);\r\n    }\r\n}",
  "sourcePath": "D:/dev/github-cyotee/auditing_platform/contracts/AuditablePlatform.sol",
  "compiler": {
    "name": "solc",
    "version": "0.6.10+commit.00c0fcaf.Emscripten.clang"
  },
  "schemaVersion": "3.2.5",
  "updatedAt": "2020-10-12T05:54:35.082Z",
  "networkType": "ethereum",
  "devdoc": {
    "methods": {}
  },
  "userdoc": {
    "methods": {}
  }
}