{
  "contractName": "Auditable",
  "abi": [
    {
      "inputs": [
        {
          "internalType": "address",
          "name": "_auditor",
          "type": "address"
        },
        {
          "internalType": "address",
          "name": "_platform",
          "type": "address"
        }
      ],
      "stateMutability": "nonpayable",
      "type": "constructor"
    },
    {
      "anonymous": false,
      "inputs": [
        {
          "indexed": false,
          "internalType": "address",
          "name": "_auditor",
          "type": "address"
        },
        {
          "indexed": false,
          "internalType": "address",
          "name": "_contract",
          "type": "address"
        },
        {
          "indexed": false,
          "internalType": "uint256",
          "name": "_time",
          "type": "uint256"
        }
      ],
      "name": "ApprovedAudit",
      "type": "event"
    },
    {
      "anonymous": false,
      "inputs": [
        {
          "indexed": false,
          "internalType": "address",
          "name": "_auditor",
          "type": "address"
        },
        {
          "indexed": false,
          "internalType": "address",
          "name": "_contract",
          "type": "address"
        },
        {
          "indexed": false,
          "internalType": "uint256",
          "name": "_time",
          "type": "uint256"
        }
      ],
      "name": "OpposedAudit",
      "type": "event"
    },
    {
      "anonymous": false,
      "inputs": [
        {
          "indexed": false,
          "internalType": "address",
          "name": "_previous",
          "type": "address"
        },
        {
          "indexed": false,
          "internalType": "address",
          "name": "_next",
          "type": "address"
        },
        {
          "indexed": false,
          "internalType": "uint256",
          "name": "_time",
          "type": "uint256"
        }
      ],
      "name": "OwnershipTransferred",
      "type": "event"
    },
    {
      "anonymous": false,
      "inputs": [
        {
          "indexed": false,
          "internalType": "address",
          "name": "_previousAuditor",
          "type": "address"
        },
        {
          "indexed": false,
          "internalType": "address",
          "name": "_newAuditor",
          "type": "address"
        },
        {
          "indexed": false,
          "internalType": "address",
          "name": "_contract",
          "type": "address"
        },
        {
          "indexed": false,
          "internalType": "uint256",
          "name": "_time",
          "type": "uint256"
        }
      ],
      "name": "SetAuditor",
      "type": "event"
    },
    {
      "anonymous": false,
      "inputs": [
        {
          "indexed": false,
          "internalType": "address",
          "name": "_previousPlatform",
          "type": "address"
        },
        {
          "indexed": false,
          "internalType": "address",
          "name": "_newPlatform",
          "type": "address"
        },
        {
          "indexed": false,
          "internalType": "address",
          "name": "_contract",
          "type": "address"
        },
        {
          "indexed": false,
          "internalType": "uint256",
          "name": "_time",
          "type": "uint256"
        }
      ],
      "name": "SetPlatform",
      "type": "event"
    },
    {
      "anonymous": false,
      "inputs": [
        {
          "indexed": false,
          "internalType": "string",
          "name": "_txHash",
          "type": "string"
        },
        {
          "indexed": false,
          "internalType": "uint256",
          "name": "_time",
          "type": "uint256"
        }
      ],
      "name": "TxHashSet",
      "type": "event"
    },
    {
      "inputs": [],
      "name": "audited",
      "outputs": [
        {
          "internalType": "bool",
          "name": "",
          "type": "bool"
        }
      ],
      "stateMutability": "view",
      "type": "function"
    },
    {
      "inputs": [],
      "name": "auditedContract",
      "outputs": [
        {
          "internalType": "address",
          "name": "",
          "type": "address"
        }
      ],
      "stateMutability": "view",
      "type": "function"
    },
    {
      "inputs": [],
      "name": "auditor",
      "outputs": [
        {
          "internalType": "address",
          "name": "",
          "type": "address"
        }
      ],
      "stateMutability": "view",
      "type": "function"
    },
    {
      "inputs": [],
      "name": "contractCreationHash",
      "outputs": [
        {
          "internalType": "string",
          "name": "",
          "type": "string"
        }
      ],
      "stateMutability": "view",
      "type": "function"
    },
    {
      "inputs": [],
      "name": "owner",
      "outputs": [
        {
          "internalType": "address payable",
          "name": "",
          "type": "address"
        }
      ],
      "stateMutability": "view",
      "type": "function"
    },
    {
      "inputs": [],
      "name": "platform",
      "outputs": [
        {
          "internalType": "address",
          "name": "",
          "type": "address"
        }
      ],
      "stateMutability": "view",
      "type": "function"
    },
    {
      "inputs": [
        {
          "internalType": "address payable",
          "name": "_owner",
          "type": "address"
        }
      ],
      "name": "transferOwnership",
      "outputs": [],
      "stateMutability": "nonpayable",
      "type": "function"
    },
    {
      "inputs": [
        {
          "internalType": "string",
          "name": "_txHash",
          "type": "string"
        }
      ],
      "name": "setContractCreationHash",
      "outputs": [],
      "stateMutability": "nonpayable",
      "type": "function"
    },
    {
      "inputs": [
        {
          "internalType": "address",
          "name": "_auditor",
          "type": "address"
        }
      ],
      "name": "setAuditor",
      "outputs": [],
      "stateMutability": "nonpayable",
      "type": "function"
    },
    {
      "inputs": [
        {
          "internalType": "address",
          "name": "_platform",
          "type": "address"
        }
      ],
      "name": "setPlatform",
      "outputs": [],
      "stateMutability": "nonpayable",
      "type": "function"
    },
    {
      "inputs": [
        {
          "internalType": "string",
          "name": "_txHash",
          "type": "string"
        }
      ],
      "name": "approveAudit",
      "outputs": [],
      "stateMutability": "nonpayable",
      "type": "function"
    },
    {
      "inputs": [
        {
          "internalType": "string",
          "name": "_txHash",
          "type": "string"
        }
      ],
      "name": "opposeAudit",
      "outputs": [],
      "stateMutability": "nonpayable",
      "type": "function"
    }
  ],
  "bytecode": "0x60806040523480156200001157600080fd5b506040516200311d3803806200311d833981810160405260408110156200003757600080fd5b810190808051906020019092919080519060200190929190505050336000806101000a81548173ffffffffffffffffffffffffffffffffffffffff021916908373ffffffffffffffffffffffffffffffffffffffff160217905550620000a382620000fd60201b60201c565b620000b4816200042060201b60201c565b30600360006101000a81548173ffffffffffffffffffffffffffffffffffffffff021916908373ffffffffffffffffffffffffffffffffffffffff160217905550505062000727565b600160009054906101000a900473ffffffffffffffffffffffffffffffffffffffff1673ffffffffffffffffffffffffffffffffffffffff163373ffffffffffffffffffffffffffffffffffffffff161480620001a657506000809054906101000a900473ffffffffffffffffffffffffffffffffffffffff1673ffffffffffffffffffffffffffffffffffffffff163373ffffffffffffffffffffffffffffffffffffffff16145b62000219576040517f08c379a00000000000000000000000000000000000000000000000000000000081526004018080602001828103825260168152602001807f41756469746f7220616e64204f776e6572206f6e6c790000000000000000000081525060200191505060405180910390fd5b600360149054906101000a900460ff16156200029d576040517f08c379a00000000000000000000000000000000000000000000000000000000081526004018080602001828103825260208152602001807f43616e6e6f74206368616e67652061756469746f7220706f737420617564697481525060200191505060405180910390fd5b6000600160009054906101000a900473ffffffffffffffffffffffffffffffffffffffff16905081600160006101000a81548173ffffffffffffffffffffffffffffffffffffffff021916908373ffffffffffffffffffffffffffffffffffffffff1602179055507f98b232d9a3537e13a144e9b66b30c5ee20e27f174c485db872cf851d3e1e7a6d81600160009054906101000a900473ffffffffffffffffffffffffffffffffffffffff16600360009054906101000a900473ffffffffffffffffffffffffffffffffffffffff1642604051808573ffffffffffffffffffffffffffffffffffffffff1673ffffffffffffffffffffffffffffffffffffffff1681526020018473ffffffffffffffffffffffffffffffffffffffff1673ffffffffffffffffffffffffffffffffffffffff1681526020018373ffffffffffffffffffffffffffffffffffffffff1673ffffffffffffffffffffffffffffffffffffffff16815260200182815260200194505050505060405180910390a15050565b600160009054906101000a900473ffffffffffffffffffffffffffffffffffffffff1673ffffffffffffffffffffffffffffffffffffffff163373ffffffffffffffffffffffffffffffffffffffff161480620004c957506000809054906101000a900473ffffffffffffffffffffffffffffffffffffffff1673ffffffffffffffffffffffffffffffffffffffff163373ffffffffffffffffffffffffffffffffffffffff16145b6200053c576040517f08c379a00000000000000000000000000000000000000000000000000000000081526004018080602001828103825260168152602001807f41756469746f7220616e64204f776e6572206f6e6c790000000000000000000081525060200191505060405180910390fd5b600360149054906101000a900460ff1615620005a4576040517f08c379a0000000000000000000000000000000000000000000000000000000008152600401808060200182810382526021815260200180620030fc6021913960400191505060405180910390fd5b6000600260009054906101000a900473ffffffffffffffffffffffffffffffffffffffff16905081600260006101000a81548173ffffffffffffffffffffffffffffffffffffffff021916908373ffffffffffffffffffffffffffffffffffffffff1602179055507fb32981f97e34222366d2edc548bef2dbda4ab6b033ef6046b0eb8cb4adcf821881600260009054906101000a900473ffffffffffffffffffffffffffffffffffffffff16600360009054906101000a900473ffffffffffffffffffffffffffffffffffffffff1642604051808573ffffffffffffffffffffffffffffffffffffffff1673ffffffffffffffffffffffffffffffffffffffff1681526020018473ffffffffffffffffffffffffffffffffffffffff1673ffffffffffffffffffffffffffffffffffffffff1681526020018373ffffffffffffffffffffffffffffffffffffffff1673ffffffffffffffffffffffffffffffffffffffff16815260200182815260200194505050505060405180910390a15050565b6129c580620007376000396000f3fe608060405234801561001057600080fd5b50600436106100b45760003560e01c806385f0f5b91161007157806385f0f5b9146102b85780638da5cb5b146103735780639f203255146103bd578063b5afe40d14610401578063e7cde8fa146104bc578063f2fde38b1461053f576100b4565b80630baff053146100b95780630ca92e32146100db5780633ec045a6146101965780634bde38c8146101e05780636945c5ea1461022a5780637f7a42131461026e575b600080fd5b6100c1610583565b604051808215151515815260200191505060405180910390f35b610194600480360360208110156100f157600080fd5b810190808035906020019064010000000081111561010e57600080fd5b82018360208201111561012057600080fd5b8035906020019184600183028401116401000000008311171561014257600080fd5b91908080601f016020809104026020016040519081016040528093929190818152602001838380828437600081840152601f19601f820116905080830192505050505050509192919290505050610596565b005b61019e6107c0565b604051808273ffffffffffffffffffffffffffffffffffffffff1673ffffffffffffffffffffffffffffffffffffffff16815260200191505060405180910390f35b6101e86107e6565b604051808273ffffffffffffffffffffffffffffffffffffffff1673ffffffffffffffffffffffffffffffffffffffff16815260200191505060405180910390f35b61026c6004803603602081101561024057600080fd5b81019080803573ffffffffffffffffffffffffffffffffffffffff16906020019092919050505061080c565b005b610276610b0f565b604051808273ffffffffffffffffffffffffffffffffffffffff1673ffffffffffffffffffffffffffffffffffffffff16815260200191505060405180910390f35b610371600480360360208110156102ce57600080fd5b81019080803590602001906401000000008111156102eb57600080fd5b8201836020820111156102fd57600080fd5b8035906020019184600183028401116401000000008311171561031f57600080fd5b91908080601f016020809104026020016040519081016040528093929190818152602001838380828437600081840152601f19601f820116905080830192505050505050509192919290505050610b35565b005b61037b611533565b604051808273ffffffffffffffffffffffffffffffffffffffff1673ffffffffffffffffffffffffffffffffffffffff16815260200191505060405180910390f35b6103ff600480360360208110156103d357600080fd5b81019080803573ffffffffffffffffffffffffffffffffffffffff169060200190929190505050611558565b005b6104ba6004803603602081101561041757600080fd5b810190808035906020019064010000000081111561043457600080fd5b82018360208201111561044657600080fd5b8035906020019184600183028401116401000000008311171561046857600080fd5b91908080601f016020809104026020016040519081016040528093929190818152602001838380828437600081840152601f19601f820116905080830192505050505050509192919290505050611878565b005b6104c4612276565b6040518080602001828103825283818151815260200191508051906020019080838360005b838110156105045780820151818401526020810190506104e9565b50505050905090810190601f1680156105315780820380516001836020036101000a031916815260200191505b509250505060405180910390f35b6105816004803603602081101561055557600080fd5b81019080803573ffffffffffffffffffffffffffffffffffffffff169060200190929190505050612314565b005b600360149054906101000a900460ff1681565b6000809054906101000a900473ffffffffffffffffffffffffffffffffffffffff1673ffffffffffffffffffffffffffffffffffffffff163373ffffffffffffffffffffffffffffffffffffffff1614610658576040517f08c379a000000000000000000000000000000000000000000000000000000000815260040180806020018281038252600a8152602001807f4f776e6572206f6e6c790000000000000000000000000000000000000000000081525060200191505060405180910390fd5b60006004805460018160011615610100020316600290049050146106e4576040517f08c379a000000000000000000000000000000000000000000000000000000000815260040180806020018281038252600f8152602001807f747820686173206265656e20736574000000000000000000000000000000000081525060200191505060405180910390fd5b80600490805190602001906106fa929190612798565b507f04523fbb9c5a5f69c4708964b3d485030c5653832e3ab0e99aa5e9d4fecd851460044260405180806020018381526020018281038252848181546001816001161561010002031660029004815260200191508054600181600116156101000203166002900480156107ae5780601f10610783576101008083540402835291602001916107ae565b820191906000526020600020905b81548152906001019060200180831161079157829003601f168201915b5050935050505060405180910390a150565b600160009054906101000a900473ffffffffffffffffffffffffffffffffffffffff1681565b600260009054906101000a900473ffffffffffffffffffffffffffffffffffffffff1681565b600160009054906101000a900473ffffffffffffffffffffffffffffffffffffffff1673ffffffffffffffffffffffffffffffffffffffff163373ffffffffffffffffffffffffffffffffffffffff1614806108b457506000809054906101000a900473ffffffffffffffffffffffffffffffffffffffff1673ffffffffffffffffffffffffffffffffffffffff163373ffffffffffffffffffffffffffffffffffffffff16145b610926576040517f08c379a00000000000000000000000000000000000000000000000000000000081526004018080602001828103825260168152602001807f41756469746f7220616e64204f776e6572206f6e6c790000000000000000000081525060200191505060405180910390fd5b600360149054906101000a900460ff161561098c576040517f08c379a000000000000000000000000000000000000000000000000000000000815260040180806020018281038252602181526020018061296f6021913960400191505060405180910390fd5b6000600260009054906101000a900473ffffffffffffffffffffffffffffffffffffffff16905081600260006101000a81548173ffffffffffffffffffffffffffffffffffffffff021916908373ffffffffffffffffffffffffffffffffffffffff1602179055507fb32981f97e34222366d2edc548bef2dbda4ab6b033ef6046b0eb8cb4adcf821881600260009054906101000a900473ffffffffffffffffffffffffffffffffffffffff16600360009054906101000a900473ffffffffffffffffffffffffffffffffffffffff1642604051808573ffffffffffffffffffffffffffffffffffffffff1673ffffffffffffffffffffffffffffffffffffffff1681526020018473ffffffffffffffffffffffffffffffffffffffff1673ffffffffffffffffffffffffffffffffffffffff1681526020018373ffffffffffffffffffffffffffffffffffffffff1673ffffffffffffffffffffffffffffffffffffffff16815260200182815260200194505050505060405180910390a15050565b600360009054906101000a900473ffffffffffffffffffffffffffffffffffffffff1681565b600160009054906101000a900473ffffffffffffffffffffffffffffffffffffffff1673ffffffffffffffffffffffffffffffffffffffff163373ffffffffffffffffffffffffffffffffffffffff1614610bf8576040517f08c379a000000000000000000000000000000000000000000000000000000000815260040180806020018281038252600c8152602001807f41756469746f72206f6e6c79000000000000000000000000000000000000000081525060200191505060405180910390fd5b60046040516020018082805460018160011615610100020316600290048015610c585780601f10610c36576101008083540402835291820191610c58565b820191906000526020600020905b815481529060010190602001808311610c44575b505091505060405160208183030381529060405280519060200120816040516020018082805190602001908083835b60208310610caa5780518252602082019150602081019050602083039250610c87565b6001836020036101000a0380198251168184511680821785525050505050509050019150506040516020818303038152906040528051906020012014610d58576040517f08c379a00000000000000000000000000000000000000000000000000000000081526004018080602001828103825260168152602001807f74782068617368657320646f206e6f74206d617463680000000000000000000081525060200191505060405180910390fd5b600360149054906101000a900460ff1615610dbe576040517f08c379a000000000000000000000000000000000000000000000000000000000815260040180806020018281038252602281526020018061283e6022913960400191505060405180910390fd5b6001600360146101000a81548160ff021916908315150217905550606080610de533612500565b90506060610e14600360009054906101000a900473ffffffffffffffffffffffffffffffffffffffff16612500565b905080848360405160200180807f7b20220000000000000000000000000000000000000000000000000000000000815250600301807f6e616d6522203a2000000000000000000000000000000000000000000000000081525060080180612860603a9139603a01807f226465736372697074696f6e22203a200000000000000000000000000000000081525060100180612904606b9139606b01807f22696d61676522203a2000000000000000000000000000000000000000000000815250600a01806128bd60479139604701807f22696e53797374656d22203a2000000000000000000000000000000000000000815250600d01807f747275652c200000000000000000000000000000000000000000000000000000815250600601807f2269734175646974656422203a20000000000000000000000000000000000000815250600e01807f747275652c200000000000000000000000000000000000000000000000000000815250600601807f22706173736564417564697422203a2000000000000000000000000000000000815250601001807f747275652c200000000000000000000000000000000000000000000000000000815250600601807f22636f6e747261637422203a2000000000000000000000000000000000000000815250600d01807f220000000000000000000000000000000000000000000000000000000000000081525060010184805190602001908083835b60208310611050578051825260208201915060208101905060208303925061102d565b6001836020036101000a038019825116818451168082178552505050505050905001807f222c200000000000000000000000000000000000000000000000000000000000815250600301807f226465706c6f796d656e744861736822203a2000000000000000000000000000815250601301807f220000000000000000000000000000000000000000000000000000000000000081525060010183805190602001908083835b6020831061111957805182526020820191506020810190506020830392506110f6565b6001836020036101000a038019825116818451168082178552505050505050905001807f222c200000000000000000000000000000000000000000000000000000000000815250600301807f2261756469746f7222203a200000000000000000000000000000000000000000815250600c01807f220000000000000000000000000000000000000000000000000000000000000081525060010182805190602001908083835b602083106111e257805182526020820191506020810190506020830392506111bf565b6001836020036101000a038019825116818451168082178552505050505050905001807f207d00000000000000000000000000000000000000000000000000000000000081525060020193505050506040516020818303038152906040529250600260009054906101000a900473ffffffffffffffffffffffffffffffffffffffff1673ffffffffffffffffffffffffffffffffffffffff16600360009054906101000a900473ffffffffffffffffffffffffffffffffffffffff16600185604051602401808473ffffffffffffffffffffffffffffffffffffffff1673ffffffffffffffffffffffffffffffffffffffff1681526020018315151515815260200180602001828103825283818151815260200191508051906020019080838360005b83811015611320578082015181840152602081019050611305565b50505050905090810190601f16801561134d5780820380516001836020036101000a031916815260200191505b509450505050506040516020818303038152906040527f29da6e4c000000000000000000000000000000000000000000000000000000007bffffffffffffffffffffffffffffffffffffffffffffffffffffffff19166020820180517bffffffffffffffffffffffffffffffffffffffffffffffffffffffff83818316178352505050506040518082805190602001908083835b6020831061140457805182526020820191506020810190506020830392506113e1565b6001836020036101000a038019825116818451168082178552505050505050905001915050600060405180830381855af49150503d8060008114611464576040519150601f19603f3d011682016040523d82523d6000602084013e611469565b606091505b5050507f49d19a78fe62aacaf885b7611dd7062bda427edcf4c66379cc2e398324d042a933600360009054906101000a900473ffffffffffffffffffffffffffffffffffffffff1642604051808473ffffffffffffffffffffffffffffffffffffffff1673ffffffffffffffffffffffffffffffffffffffff1681526020018373ffffffffffffffffffffffffffffffffffffffff1673ffffffffffffffffffffffffffffffffffffffff168152602001828152602001935050505060405180910390a150505050565b6000809054906101000a900473ffffffffffffffffffffffffffffffffffffffff1681565b600160009054906101000a900473ffffffffffffffffffffffffffffffffffffffff1673ffffffffffffffffffffffffffffffffffffffff163373ffffffffffffffffffffffffffffffffffffffff16148061160057506000809054906101000a900473ffffffffffffffffffffffffffffffffffffffff1673ffffffffffffffffffffffffffffffffffffffff163373ffffffffffffffffffffffffffffffffffffffff16145b611672576040517f08c379a00000000000000000000000000000000000000000000000000000000081526004018080602001828103825260168152602001807f41756469746f7220616e64204f776e6572206f6e6c790000000000000000000081525060200191505060405180910390fd5b600360149054906101000a900460ff16156116f5576040517f08c379a00000000000000000000000000000000000000000000000000000000081526004018080602001828103825260208152602001807f43616e6e6f74206368616e67652061756469746f7220706f737420617564697481525060200191505060405180910390fd5b6000600160009054906101000a900473ffffffffffffffffffffffffffffffffffffffff16905081600160006101000a81548173ffffffffffffffffffffffffffffffffffffffff021916908373ffffffffffffffffffffffffffffffffffffffff1602179055507f98b232d9a3537e13a144e9b66b30c5ee20e27f174c485db872cf851d3e1e7a6d81600160009054906101000a900473ffffffffffffffffffffffffffffffffffffffff16600360009054906101000a900473ffffffffffffffffffffffffffffffffffffffff1642604051808573ffffffffffffffffffffffffffffffffffffffff1673ffffffffffffffffffffffffffffffffffffffff1681526020018473ffffffffffffffffffffffffffffffffffffffff1673ffffffffffffffffffffffffffffffffffffffff1681526020018373ffffffffffffffffffffffffffffffffffffffff1673ffffffffffffffffffffffffffffffffffffffff16815260200182815260200194505050505060405180910390a15050565b600160009054906101000a900473ffffffffffffffffffffffffffffffffffffffff1673ffffffffffffffffffffffffffffffffffffffff163373ffffffffffffffffffffffffffffffffffffffff161461193b576040517f08c379a000000000000000000000000000000000000000000000000000000000815260040180806020018281038252600c8152602001807f41756469746f72206f6e6c79000000000000000000000000000000000000000081525060200191505060405180910390fd5b6004604051602001808280546001816001161561010002031660029004801561199b5780601f1061197957610100808354040283529182019161199b565b820191906000526020600020905b815481529060010190602001808311611987575b505091505060405160208183030381529060405280519060200120816040516020018082805190602001908083835b602083106119ed57805182526020820191506020810190506020830392506119ca565b6001836020036101000a0380198251168184511680821785525050505050509050019150506040516020818303038152906040528051906020012014611a9b576040517f08c379a00000000000000000000000000000000000000000000000000000000081526004018080602001828103825260168152602001807f74782068617368657320646f206e6f74206d617463680000000000000000000081525060200191505060405180910390fd5b600360149054906101000a900460ff1615611b01576040517f08c379a000000000000000000000000000000000000000000000000000000000815260040180806020018281038252602381526020018061289a6023913960400191505060405180910390fd5b6000600360146101000a81548160ff021916908315150217905550606080611b2833612500565b90506060611b57600360009054906101000a900473ffffffffffffffffffffffffffffffffffffffff16612500565b905080848360405160200180807f7b20220000000000000000000000000000000000000000000000000000000000815250600301807f6e616d6522203a2000000000000000000000000000000000000000000000000081525060080180612860603a9139603a01807f226465736372697074696f6e22203a200000000000000000000000000000000081525060100180612904606b9139606b01807f22696d61676522203a2000000000000000000000000000000000000000000000815250600a01806128bd60479139604701807f22696e53797374656d22203a2000000000000000000000000000000000000000815250600d01807f2274727565222c20000000000000000000000000000000000000000000000000815250600801807f2269734175646974656422203a20000000000000000000000000000000000000815250600e01807f2274727565222c20000000000000000000000000000000000000000000000000815250600801807f22706173736564417564697422203a2000000000000000000000000000000000815250601001807f2266616c7365222c200000000000000000000000000000000000000000000000815250600901807f22636f6e747261637422203a2000000000000000000000000000000000000000815250600d01807f220000000000000000000000000000000000000000000000000000000000000081525060010184805190602001908083835b60208310611d935780518252602082019150602081019050602083039250611d70565b6001836020036101000a038019825116818451168082178552505050505050905001807f222c200000000000000000000000000000000000000000000000000000000000815250600301807f226465706c6f796d656e744861736822203a2000000000000000000000000000815250601301807f220000000000000000000000000000000000000000000000000000000000000081525060010183805190602001908083835b60208310611e5c5780518252602082019150602081019050602083039250611e39565b6001836020036101000a038019825116818451168082178552505050505050905001807f222c200000000000000000000000000000000000000000000000000000000000815250600301807f2261756469746f7222203a200000000000000000000000000000000000000000815250600c01807f220000000000000000000000000000000000000000000000000000000000000081525060010182805190602001908083835b60208310611f255780518252602082019150602081019050602083039250611f02565b6001836020036101000a038019825116818451168082178552505050505050905001807f207d00000000000000000000000000000000000000000000000000000000000081525060020193505050506040516020818303038152906040529250600260009054906101000a900473ffffffffffffffffffffffffffffffffffffffff1673ffffffffffffffffffffffffffffffffffffffff16600360009054906101000a900473ffffffffffffffffffffffffffffffffffffffff16600085604051602401808473ffffffffffffffffffffffffffffffffffffffff1673ffffffffffffffffffffffffffffffffffffffff1681526020018315151515815260200180602001828103825283818151815260200191508051906020019080838360005b83811015612063578082015181840152602081019050612048565b50505050905090810190601f1680156120905780820380516001836020036101000a031916815260200191505b509450505050506040516020818303038152906040527f29da6e4c000000000000000000000000000000000000000000000000000000007bffffffffffffffffffffffffffffffffffffffffffffffffffffffff19166020820180517bffffffffffffffffffffffffffffffffffffffffffffffffffffffff83818316178352505050506040518082805190602001908083835b602083106121475780518252602082019150602081019050602083039250612124565b6001836020036101000a038019825116818451168082178552505050505050905001915050600060405180830381855af49150503d80600081146121a7576040519150601f19603f3d011682016040523d82523d6000602084013e6121ac565b606091505b5050507ff2f06b2ec587d02afc022c419890a05fd12dc18c6ea87bdc7fc91dbfb5648fc333600360009054906101000a900473ffffffffffffffffffffffffffffffffffffffff1642604051808473ffffffffffffffffffffffffffffffffffffffff1673ffffffffffffffffffffffffffffffffffffffff1681526020018373ffffffffffffffffffffffffffffffffffffffff1673ffffffffffffffffffffffffffffffffffffffff168152602001828152602001935050505060405180910390a150505050565b60048054600181600116156101000203166002900480601f01602080910402602001604051908101604052809291908181526020018280546001816001161561010002031660029004801561230c5780601f106122e15761010080835404028352916020019161230c565b820191906000526020600020905b8154815290600101906020018083116122ef57829003601f168201915b505050505081565b6000809054906101000a900473ffffffffffffffffffffffffffffffffffffffff1673ffffffffffffffffffffffffffffffffffffffff163373ffffffffffffffffffffffffffffffffffffffff16146123d6576040517f08c379a000000000000000000000000000000000000000000000000000000000815260040180806020018281038252600a8152602001807f4f776e6572206f6e6c790000000000000000000000000000000000000000000081525060200191505060405180910390fd5b60008060009054906101000a900473ffffffffffffffffffffffffffffffffffffffff169050816000806101000a81548173ffffffffffffffffffffffffffffffffffffffff021916908373ffffffffffffffffffffffffffffffffffffffff1602179055507fc13a1166d81cd3b0b352a367aebab95f3a6f6bc695fdab8e9a9d335239c3861b816000809054906101000a900473ffffffffffffffffffffffffffffffffffffffff1642604051808473ffffffffffffffffffffffffffffffffffffffff1673ffffffffffffffffffffffffffffffffffffffff1681526020018373ffffffffffffffffffffffffffffffffffffffff1673ffffffffffffffffffffffffffffffffffffffff168152602001828152602001935050505060405180910390a15050565b606060008273ffffffffffffffffffffffffffffffffffffffff1660001b905060606040518060400160405280601081526020017f303132333435363738396162636465660000000000000000000000000000000081525090506060602a67ffffffffffffffff8111801561257457600080fd5b506040519080825280601f01601f1916602001820160405280156125a75781602001600182028036833780820191505090505b5090507f3000000000000000000000000000000000000000000000000000000000000000816000815181106125d857fe5b60200101907effffffffffffffffffffffffffffffffffffffffffffffffffffffffffffff1916908160001a9053507f78000000000000000000000000000000000000000000000000000000000000008160018151811061263557fe5b60200101907effffffffffffffffffffffffffffffffffffffffffffffffffffffffffffff1916908160001a90535060008090505b601481101561278c5782600485600c84016020811061268557fe5b1a60f81b7effffffffffffffffffffffffffffffffffffffffffffffffffffffffffffff1916901c60f81c60ff16815181106126bd57fe5b602001015160f81c60f81b8260028302600201815181106126da57fe5b60200101907effffffffffffffffffffffffffffffffffffffffffffffffffffffffffffff1916908160001a90535082600f60f81b85600c84016020811061271e57fe5b1a60f81b1660f81c60ff168151811061273357fe5b602001015160f81c60f81b82600283026003018151811061275057fe5b60200101907effffffffffffffffffffffffffffffffffffffffffffffffffffffffffffff1916908160001a905350808060010191505061266a565b50809350505050919050565b828054600181600116156101000203166002900490600052602060002090601f016020900481019282601f106127d957805160ff1916838001178555612807565b82800160010185558215612807579182015b828111156128065782518255916020019190600101906127eb565b5b5090506128149190612818565b5090565b61283a91905b8082111561283657600081600090555060010161281e565b5090565b9056fe436f6e74726163742068617320616c7265616479206265656e20617070726f7665642254686520436875726368206f662074686520436861696e20496e636f72706f72617465642041756469742041726368697665204e4654222c2043616e6e6f742064657374726f7920616e20617070726f76656420636f6e74726163742268747470733a2f2f697066732e696f2f697066732f516d535a554c37456132316f73555555455358366e5075555353544636526e69796f4a47426161325a5937566a64222c202241207265636f7264206f662074686520617564697420666f72207468697320636f6e74726163742070726f7669646564206672656520746f20646576732066726f6d2054686520436875726368206f662074686520436861696e20496e636f72706f7261746564222c2043616e6e6f74206368616e676520706c6174666f726d20706f7374206175646974a2646970667358221220a99885e302efb69c16e35db197e37150c20513db011ca3db4dc39f68a893b8a764736f6c634300060a003343616e6e6f74206368616e676520706c6174666f726d20706f7374206175646974",
  "immutableReferences": {},
  "source": "pragma solidity ^0.6.10;\r\nimport \"./Ownable.sol\";\r\n\r\ncontract Auditable is Ownable {\r\n\r\n    address public auditor;\r\n    address public platform;\r\n    address public auditedContract;\r\n\r\n    // Indicates whether the audit has been completed and approved (true) or not (false)\r\n    bool public audited;\r\n\r\n    // A deployed contract has a creation hash, store it so that you can access the code post self destruct\r\n    string public contractCreationHash;\r\n\r\n    modifier isAudited() {\r\n        require(audited, \"Not audited\");\r\n        _;\r\n    }\r\n\r\n    event SetAuditor(address _previousAuditor, address _newAuditor, address _contract, uint256 _time);\r\n    event SetPlatform(address _previousPlatform, address _newPlatform, address _contract, uint256 _time);\r\n    event ApprovedAudit(address _auditor, address _contract, uint256 _time);\r\n    event OpposedAudit(address _auditor, address _contract, uint256 _time);\r\n    event TxHashSet(string _txHash, uint256 _time);\r\n\r\n    constructor(address _auditor, address _platform) Ownable() public {\r\n        setAuditor(_auditor);\r\n        setPlatform(_platform);\r\n        auditedContract = address(this);\r\n    }\r\n\r\n    function setContractCreationHash(string memory _txHash) public onlyOwner() {\r\n        require(bytes(contractCreationHash).length == 0, \"tx has been set\");\r\n\r\n        contractCreationHash = _txHash;\r\n\r\n        emit TxHashSet(contractCreationHash, now);\r\n    }\r\n\r\n    function setAuditor(address _auditor) public {\r\n        require(msg.sender == auditor || msg.sender == owner, \"Auditor and Owner only\");\r\n        require(!audited, \"Cannot change auditor post audit\");\r\n\r\n        address previousAuditor = auditor;\r\n        auditor = _auditor;\r\n\r\n        emit SetAuditor(previousAuditor, auditor, auditedContract, now);\r\n    }\r\n\r\n    function setPlatform(address _platform) public {\r\n        require(msg.sender == auditor || msg.sender == owner, \"Auditor and Owner only\");\r\n        require(!audited, \"Cannot change platform post audit\");\r\n\r\n        address previousPlatform = platform;\r\n        platform = _platform;\r\n\r\n        emit SetPlatform(previousPlatform, platform, auditedContract, now);\r\n    }\r\n\r\n    // The auditor is approving the contract by switching the audit bool to true.\r\n    function approveAudit(string memory _txHash) public {\r\n        require(msg.sender == auditor, \"Auditor only\");\r\n        require(keccak256(abi.encodePacked(_txHash)) == keccak256(abi.encodePacked(contractCreationHash)), \"tx hashes do not match\");\r\n        require(!audited, \"Contract has already been approved\");\r\n\r\n        audited = true;\r\n\r\n        bytes memory _metaData;\r\n\r\n        // Address types must be converted manually otherwise conversions will not be in human readable form later\r\n        string memory _auditor = addressToString(msg.sender);\r\n        string memory _address = addressToString(auditedContract);\r\n\r\n        _metaData =  abi.encodePacked(\r\n                '{ \"',\r\n                'name\" : ' , '\"The Church of the Chain Incorporated Audit Archive NFT\", ',\r\n                '\"description\" : ', '\"A record of the audit for this contract provided free to devs from The Church of the Chain Incorporated\", ',\r\n                '\"image\" : ', '\"https://ipfs.io/ipfs/QmSZUL7Ea21osUUUESX6nPuUSSTF6RniyoJGBaa2ZY7Vjd\", ',\r\n                '\"inSystem\" : ', 'true, ',\r\n                '\"isAudited\" : ', 'true, ',\r\n                '\"passedAudit\" : ', 'true, ',\r\n                '\"contract\" : ', '\"', _address, '\", ',\r\n                '\"deploymentHash\" : ', '\"', _txHash, '\", ',\r\n                '\"auditor\" : ', '\"', _auditor,\r\n                ' }');\r\n\r\n        // Delegate the call via the platform to complete the audito\r\n        platform.delegatecall(abi.encodeWithSignature(\"completeAudit(address, bool, bytes)\", auditedContract, true, _metaData));\r\n\r\n        emit ApprovedAudit(msg.sender, auditedContract, now);\r\n    }\r\n\r\n    // The auditor is opposing the audit by switching the bool to false\r\n    function opposeAudit(string memory _txHash) public {\r\n        require(msg.sender == auditor, \"Auditor only\");\r\n        require(keccak256(abi.encodePacked(_txHash)) == keccak256(abi.encodePacked(contractCreationHash)), \"tx hashes do not match\");\r\n        require(!audited, \"Cannot destroy an approved contract\");\r\n\r\n        // The default (unset) bool is set to false but do not rely on that; set to false to be sure.\r\n        audited = false;\r\n\r\n        bytes memory _metaData;\r\n\r\n        // Address types must be converted manually otherwise conversions will not be in human readable form later\r\n        string memory _auditor = addressToString(msg.sender);\r\n        string memory _address = addressToString(auditedContract);\r\n\r\n        _metaData =  abi.encodePacked(\r\n                '{ \"',\r\n                'name\" : ' , '\"The Church of the Chain Incorporated Audit Archive NFT\", ',\r\n                '\"description\" : ', '\"A record of the audit for this contract provided free to devs from The Church of the Chain Incorporated\", ',\r\n                '\"image\" : ', '\"https://ipfs.io/ipfs/QmSZUL7Ea21osUUUESX6nPuUSSTF6RniyoJGBaa2ZY7Vjd\", ',\r\n                '\"inSystem\" : ', '\"true\", ',\r\n                '\"isAudited\" : ', '\"true\", ',\r\n                '\"passedAudit\" : ', '\"false\", ',\r\n                '\"contract\" : ', '\"', _address, '\", ',\r\n                '\"deploymentHash\" : ', '\"', _txHash, '\", ',\r\n                '\"auditor\" : ', '\"', _auditor,\r\n                ' }');\r\n\r\n        // Delegate the call via the platform to complete the audito\r\n        platform.delegatecall(abi.encodeWithSignature(\"completeAudit(address, bool, bytes)\", auditedContract, false, _metaData));\r\n\r\n        emit OpposedAudit(msg.sender, auditedContract, now);\r\n    }\r\n\r\n    function addressToString(address _address) private pure returns(string memory) {\r\n        bytes32 _bytes = bytes32(uint256(_address));\r\n        bytes memory HEX = \"0123456789abcdef\";\r\n        bytes memory _addr = new bytes(42);\r\n        \r\n        _addr[0] = '0';\r\n        _addr[1] = 'x';\r\n        \r\n        for(uint256 i = 0; i < 20; i++) {\r\n            _addr[2+i*2] = HEX[uint8(_bytes[i + 12] >> 4)];\r\n            _addr[3+i*2] = HEX[uint8(_bytes[i + 12] & 0x0f)];\r\n        }\r\n        \r\n        return string(_addr);\r\n    }\r\n}\r\n\r\n\r\n\r\n\r\n",
  "sourcePath": "D:/dev/github-cyotee/auditing_platform/contracts/Auditable.sol",
  "compiler": {
    "name": "solc",
    "version": "0.6.10+commit.00c0fcaf.Emscripten.clang"
  },
  "schemaVersion": "3.2.5",
  "updatedAt": "2020-10-12T05:54:35.089Z",
  "networkType": "ethereum",
  "devdoc": {
    "methods": {}
  },
  "userdoc": {
    "methods": {}
  }
}