{
  "contractName": "Token2",
  "abi": [
    {
      "inputs": [],
      "stateMutability": "nonpayable",
      "type": "constructor"
    },
    {
      "anonymous": false,
      "inputs": [
        {
          "indexed": false,
          "internalType": "string",
          "name": "_data",
          "type": "string"
        }
      ],
      "name": "DataBytes",
      "type": "event"
    },
    {
      "anonymous": false,
      "inputs": [
        {
          "indexed": false,
          "internalType": "string",
          "name": "_data",
          "type": "string"
        }
      ],
      "name": "DataString",
      "type": "event"
    },
    {
      "inputs": [],
      "name": "owner",
      "outputs": [
        {
          "internalType": "address",
          "name": "",
          "type": "address"
        }
      ],
      "stateMutability": "view",
      "type": "function"
    },
    {
      "inputs": [
        {
          "internalType": "bytes",
          "name": "data",
          "type": "bytes"
        }
      ],
      "name": "receiveBytesCall",
      "outputs": [],
      "stateMutability": "nonpayable",
      "type": "function"
    },
    {
      "inputs": [
        {
          "internalType": "string",
          "name": "data",
          "type": "string"
        }
      ],
      "name": "receiveStringCall",
      "outputs": [],
      "stateMutability": "nonpayable",
      "type": "function"
    }
  ],
  "bytecode": "0x608060405234801561001057600080fd5b50336000806101000a81548173ffffffffffffffffffffffffffffffffffffffff021916908373ffffffffffffffffffffffffffffffffffffffff160217905550610226806100606000396000f3fe608060405234801561001057600080fd5b50600436106100415760003560e01c80631d31b610146100465780638da5cb5b146100bf5780638dd48e3c14610109575b600080fd5b6100bd6004803603602081101561005c57600080fd5b810190808035906020019064010000000081111561007957600080fd5b82018360208201111561008b57600080fd5b803590602001918460018302840111640100000000831117156100ad57600080fd5b90919293919293905050506101c4565b005b6100c76101c8565b604051808273ffffffffffffffffffffffffffffffffffffffff1673ffffffffffffffffffffffffffffffffffffffff16815260200191505060405180910390f35b6101c26004803603602081101561011f57600080fd5b810190808035906020019064010000000081111561013c57600080fd5b82018360208201111561014e57600080fd5b8035906020019184600183028401116401000000008311171561017057600080fd5b91908080601f016020809104026020016040519081016040528093929190818152602001838380828437600081840152601f19601f8201169050808301925050505050505091929192905050506101ed565b005b5050565b6000809054906101000a900473ffffffffffffffffffffffffffffffffffffffff1681565b5056fea2646970667358221220f20f8b013a5f743a88fcad8760ec216147ed513f2205cb4234faf1fbc7646d2264736f6c634300060a0033",
  "immutableReferences": {},
  "source": "pragma solidity ^0.6.10;\r\n\r\n// used for testing, do not use in prod, this should be deleted\r\n\r\ncontract Token2 {\r\n\r\n    address public owner;\r\n\r\n    event DataBytes(string _data);\r\n    event DataString(string _data);\r\n\r\n    constructor() public {\r\n        owner = msg.sender;\r\n    }\r\n\r\n    function receiveBytesCall(bytes calldata data) external {\r\n        string(data);\r\n        // emit DataBytes(string(data));\r\n    }\r\n\r\n    function receiveStringCall(string memory data) public {\r\n        data;\r\n        // emit DataString(data);\r\n    }\r\n}",
  "sourcePath": "D:/dev/github-cyotee/auditing_platform/contracts/Token2.sol",
  "compiler": {
    "name": "solc",
    "version": "0.6.10+commit.00c0fcaf.Emscripten.clang"
  },
  "schemaVersion": "3.2.5",
  "updatedAt": "2020-10-12T05:54:32.733Z",
  "devdoc": {
    "methods": {}
  },
  "userdoc": {
    "methods": {}
  }
}