{
  "contractName": "Token",
  "abi": [
    {
      "inputs": [
        {
          "internalType": "address",
          "name": "token",
          "type": "address"
        }
      ],
      "stateMutability": "nonpayable",
      "type": "constructor"
    },
    {
      "inputs": [],
      "name": "bgA",
      "outputs": [
        {
          "internalType": "uint256",
          "name": "",
          "type": "uint256"
        }
      ],
      "stateMutability": "view",
      "type": "function"
    },
    {
      "inputs": [],
      "name": "bgB",
      "outputs": [
        {
          "internalType": "uint256",
          "name": "",
          "type": "uint256"
        }
      ],
      "stateMutability": "view",
      "type": "function"
    },
    {
      "inputs": [],
      "name": "metaBytes",
      "outputs": [
        {
          "internalType": "bytes",
          "name": "",
          "type": "bytes"
        }
      ],
      "stateMutability": "view",
      "type": "function"
    },
    {
      "inputs": [],
      "name": "metaData",
      "outputs": [
        {
          "internalType": "string",
          "name": "",
          "type": "string"
        }
      ],
      "stateMutability": "view",
      "type": "function"
    },
    {
      "inputs": [],
      "name": "sgA",
      "outputs": [
        {
          "internalType": "uint256",
          "name": "",
          "type": "uint256"
        }
      ],
      "stateMutability": "view",
      "type": "function"
    },
    {
      "inputs": [],
      "name": "sgB",
      "outputs": [
        {
          "internalType": "uint256",
          "name": "",
          "type": "uint256"
        }
      ],
      "stateMutability": "view",
      "type": "function"
    },
    {
      "inputs": [],
      "name": "token2",
      "outputs": [
        {
          "internalType": "address",
          "name": "",
          "type": "address"
        }
      ],
      "stateMutability": "view",
      "type": "function"
    },
    {
      "inputs": [],
      "name": "makeBytesCall",
      "outputs": [],
      "stateMutability": "payable",
      "type": "function"
    },
    {
      "inputs": [],
      "name": "makeStringCall",
      "outputs": [],
      "stateMutability": "payable",
      "type": "function"
    }
  ],
  "bytecode": "0x60806040523480156200001157600080fd5b5060405162000fc238038062000fc2833981810160405260208110156200003757600080fd5b810190808051906020019092919050505080600260006101000a81548173ffffffffffffffffffffffffffffffffffffffff021916908373ffffffffffffffffffffffffffffffffffffffff16021790555060606200009c33620002f060201b60201c565b90508060405160200180807f7b20220000000000000000000000000000000000000000000000000000000000815250600301807f2261756469746f724f66436f6e747261637422203a2000000000000000000000815250601601807f220000000000000000000000000000000000000000000000000000000000000081525060010182805190602001908083835b602083106200014f57805182526020820191506020810190506020830392506200012a565b6001836020036101000a038019825116818451168082178552505050505050905001807f207d00000000000000000000000000000000000000000000000000000000000081525060020191505060405160208183030381529060405260009080519060200190620001c292919062000594565b508060405160200180807f7b20220000000000000000000000000000000000000000000000000000000000815250600301807f2261756469746f724f66436f6e747261637422203a2000000000000000000000815250601601807f220000000000000000000000000000000000000000000000000000000000000081525060010182805190602001908083835b602083106200027457805182526020820191506020810190506020830392506200024f565b6001836020036101000a038019825116818451168082178552505050505050905001807f207d00000000000000000000000000000000000000000000000000000000000081525060020191505060405160208183030381529060405260019080519060200190620002e79291906200061b565b505050620006ca565b606060008273ffffffffffffffffffffffffffffffffffffffff1660001b905060606040518060400160405280601081526020017f303132333435363738396162636465660000000000000000000000000000000081525090506060602a67ffffffffffffffff811180156200036557600080fd5b506040519080825280601f01601f191660200182016040528015620003995781602001600182028036833780820191505090505b5090507f300000000000000000000000000000000000000000000000000000000000000081600081518110620003cb57fe5b60200101907effffffffffffffffffffffffffffffffffffffffffffffffffffffffffffff1916908160001a9053507f7800000000000000000000000000000000000000000000000000000000000000816001815181106200042957fe5b60200101907effffffffffffffffffffffffffffffffffffffffffffffffffffffffffffff1916908160001a90535060008090505b6014811015620005885782600485600c8401602081106200047b57fe5b1a60f81b7effffffffffffffffffffffffffffffffffffffffffffffffffffffffffffff1916901c60f81c60ff1681518110620004b457fe5b602001015160f81c60f81b826002830260020181518110620004d257fe5b60200101907effffffffffffffffffffffffffffffffffffffffffffffffffffffffffffff1916908160001a90535082600f60f81b85600c8401602081106200051757fe5b1a60f81b1660f81c60ff16815181106200052d57fe5b602001015160f81c60f81b8260028302600301815181106200054b57fe5b60200101907effffffffffffffffffffffffffffffffffffffffffffffffffffffffffffff1916908160001a90535080806001019150506200045e565b50809350505050919050565b828054600181600116156101000203166002900490600052602060002090601f016020900481019282601f10620005d757805160ff191683800117855562000608565b8280016001018555821562000608579182015b8281111562000607578251825591602001919060010190620005ea565b5b509050620006179190620006a2565b5090565b828054600181600116156101000203166002900490600052602060002090601f016020900481019282601f106200065e57805160ff19168380011785556200068f565b828001600101855582156200068f579182015b828111156200068e57825182559160200191906001019062000671565b5b5090506200069e9190620006a2565b5090565b620006c791905b80821115620006c3576000816000905550600101620006a9565b5090565b90565b6108e880620006da6000396000f3fe6080604052600436106100855760003560e01c80637805ada4116100595780637805ada414610141578063a11396e0146101d1578063baf2a4eb146101db578063ca2a70d21461026b578063ff2b25db1461029657610085565b80624831431461008a57806325be124e146100b557806326b89b851461010c578063292e143414610116575b600080fd5b34801561009657600080fd5b5061009f6102c1565b6040518082815260200191505060405180910390f35b3480156100c157600080fd5b506100ca6102c7565b604051808273ffffffffffffffffffffffffffffffffffffffff1673ffffffffffffffffffffffffffffffffffffffff16815260200191505060405180910390f35b6101146102ed565b005b34801561012257600080fd5b5061012b6104e2565b6040518082815260200191505060405180910390f35b34801561014d57600080fd5b506101566104e8565b6040518080602001828103825283818151815260200191508051906020019080838360005b8381101561019657808201518184015260208101905061017b565b50505050905090810190601f1680156101c35780820380516001836020036101000a031916815260200191505b509250505060405180910390f35b6101d9610586565b005b3480156101e757600080fd5b506101f0610808565b6040518080602001828103825283818151815260200191508051906020019080838360005b83811015610230578082015181840152602081019050610215565b50505050905090810190601f16801561025d5780820380516001836020036101000a031916815260200191505b509250505060405180910390f35b34801561027757600080fd5b506102806108a6565b6040518082815260200191505060405180910390f35b3480156102a257600080fd5b506102ab6108ac565b6040518082815260200191505060405180910390f35b60035481565b600260009054906101000a900473ffffffffffffffffffffffffffffffffffffffff1681565b5a600581905550600260009054906101000a900473ffffffffffffffffffffffffffffffffffffffff1673ffffffffffffffffffffffffffffffffffffffff16600060405160240180806020018281038252838181546001816001161561010002031660029004815260200191508054600181600116156101000203166002900480156103bb5780601f10610390576101008083540402835291602001916103bb565b820191906000526020600020905b81548152906001019060200180831161039e57829003601f168201915b5050925050506040516020818303038152906040527f8dd48e3c000000000000000000000000000000000000000000000000000000007bffffffffffffffffffffffffffffffffffffffffffffffffffffffff19166020820180517bffffffffffffffffffffffffffffffffffffffffffffffffffffffff83818316178352505050506040518082805190602001908083835b60208310610471578051825260208201915060208101905060208303925061044e565b6001836020036101000a038019825116818451168082178552505050505050905001915050600060405180830381855af49150503d80600081146104d1576040519150601f19603f3d011682016040523d82523d6000602084013e6104d6565b606091505b5050505a600681905550565b60065481565b60018054600181600116156101000203166002900480601f01602080910402602001604051908101604052809291908181526020018280546001816001161561010002031660029004801561057e5780601f106105535761010080835404028352916020019161057e565b820191906000526020600020905b81548152906001019060200180831161056157829003601f168201915b505050505081565b600060018054600181600116156101000203166002900490501415610613576040517f08c379a000000000000000000000000000000000000000000000000000000000815260040180806020018281038252600f8152602001807f456d707479206d6574612064617461000000000000000000000000000000000081525060200191505060405180910390fd5b5a600381905550600260009054906101000a900473ffffffffffffffffffffffffffffffffffffffff1673ffffffffffffffffffffffffffffffffffffffff16600160405160240180806020018281038252838181546001816001161561010002031660029004815260200191508054600181600116156101000203166002900480156106e15780601f106106b6576101008083540402835291602001916106e1565b820191906000526020600020905b8154815290600101906020018083116106c457829003601f168201915b5050925050506040516020818303038152906040527f1d31b610000000000000000000000000000000000000000000000000000000007bffffffffffffffffffffffffffffffffffffffffffffffffffffffff19166020820180517bffffffffffffffffffffffffffffffffffffffffffffffffffffffff83818316178352505050506040518082805190602001908083835b602083106107975780518252602082019150602081019050602083039250610774565b6001836020036101000a038019825116818451168082178552505050505050905001915050600060405180830381855af49150503d80600081146107f7576040519150601f19603f3d011682016040523d82523d6000602084013e6107fc565b606091505b5050505a600481905550565b60008054600181600116156101000203166002900480601f01602080910402602001604051908101604052809291908181526020018280546001816001161561010002031660029004801561089e5780601f106108735761010080835404028352916020019161089e565b820191906000526020600020905b81548152906001019060200180831161088157829003601f168201915b505050505081565b60055481565b6004548156fea2646970667358221220ca47a515159305b24103d6d7b382eb2b89eb85186f5b45310a7d6523ecf0a15e64736f6c634300060a0033",
  "immutableReferences": {},
  "source": "pragma solidity ^0.6.10;\r\n\r\n// used for testing, do not use in prod, this should be deleted\r\n\r\ncontract Token {\r\n\r\n    string public metaData;\r\n    bytes public metaBytes;\r\n\r\n    address public token2;\r\n\r\n    // bytes gas before/after\r\n    uint256 public bgB;\r\n    uint256 public bgA;\r\n\r\n    // string gas before/after\r\n    uint256 public sgB;\r\n    uint256 public sgA;\r\n\r\n    constructor(address token) public {\r\n        token2 = token;\r\n\r\n        string memory addre = addressToString(msg.sender);\r\n        \r\n        metaData =  string(abi.encodePacked(\r\n                '{ \"',\r\n                '\"auditorOfContract\" : ', '\"', addre,\r\n                ' }'));\r\n        \r\n        metaBytes =  abi.encodePacked(\r\n                '{ \"',\r\n                '\"auditorOfContract\" : ', '\"', addre,\r\n                ' }');\r\n    }\r\n\r\n    function addressToString(address _address) private pure returns(string memory) {\r\n        bytes32 _bytes = bytes32(uint256(_address));\r\n        bytes memory HEX = \"0123456789abcdef\";\r\n        bytes memory _addr = new bytes(42);\r\n        \r\n        _addr[0] = '0';\r\n        _addr[1] = 'x';\r\n        \r\n        for(uint256 i = 0; i < 20; i++) {\r\n            _addr[2+i*2] = HEX[uint8(_bytes[i + 12] >> 4)];\r\n            _addr[3+i*2] = HEX[uint8(_bytes[i + 12] & 0x0f)];\r\n        }\r\n        \r\n        return string(_addr);\r\n    }\r\n\r\n    function makeBytesCall() payable public {\r\n        require(metaBytes.length != 0, \"Empty meta data\");\r\n\r\n        bgB = gasleft();\r\n        token2.delegatecall(abi.encodeWithSignature(\"receiveBytesCall(bytes)\", metaBytes));\r\n        bgA = gasleft();\r\n    }\r\n\r\n    function makeStringCall() payable public {\r\n\r\n        sgB = gasleft();\r\n        token2.delegatecall(abi.encodeWithSignature(\"receiveStringCall(string)\", metaData));\r\n        sgA = gasleft();\r\n    }\r\n}\r\n\r\n\r\n\r\n",
  "sourcePath": "D:/dev/github-cyotee/auditing_platform/contracts/Token.sol",
  "compiler": {
    "name": "solc",
    "version": "0.6.10+commit.00c0fcaf.Emscripten.clang"
  },
  "schemaVersion": "3.2.5",
  "updatedAt": "2020-10-12T05:54:32.726Z",
  "devdoc": {
    "methods": {}
  },
  "userdoc": {
    "methods": {}
  }
}